S00C00006C6162372E73726563B2
S11300000C94FE000C9416010C9416010C94160129
S11300100C9416010C9416010C9416010C94160100
S11300200C9416010C9416010C9416010C941601F0
S11300300C9416010C9416010C9416010C941601E0
S11300400C9416010C9416010C9416010C941601D0
S11300500C9416010C9416010C9416010C941601C0
S11300600C9416010C9416010C9416010C941601B0
S11300700C9416010C9416010C9416010C941601A0
S11300800C9416010C9416010C9416010C94160190
S11300900C9416010C9416010C9416010C94160180
S11300A00C9416010C9416010C9416010C94160170
S11300B00C9416010C9416010C9416010C94160160
S11300C00C9416010C9416010C9416010C94160150
S11300D00C9416010C9416010C9416010C94160140
S11300E00C9416010C9416010C9416010C94160130
S11300F00C9416010C9416010C9416010C94160120
S11301000C9416010C9416010C9416010C9416010F
S11301100C9416010C9416010C9416010C94940181
S11301200C9416010C9416010C9416010C941601EF
S11301300C9416010C9416010C9416010C941601DF
S11301400C9416010C9416010C9416010C941601CF
S11301500C9416010C9416010C9416010C941601BF
S11301600C9416010C9416010C9416010C941601AF
S11301700C9416010C9416010C9416010C9416019F
S11301800C9416010C9416010C9416010C9416018F
S11301900C9416010C9416010C9416010C9416017F
S11301A00C9416010C9416010C9416010C9416016F
S11301B00C9416010C9416010C9416010C9416015F
S11301C00C9416010C9416010C9416010C9416014F
S11301D00C9416010C9416010C9416010C9416013F
S11301E00C9416010C9416010C9416010C9416012F
S11301F00C9416010C9416010C94160111241FBEC4
S1130200CFEFCDBFDFE3DEBF00E00CBF18BE19BEE9
S11302101ABE1BBE20E2A0E0B0E201C01D92A430D1
S1130220B207E1F70E946C010C9428020C940000C0
S1130230CF93DF93CDB7DEB780E096E022E7FC01F1
S1130240268380E096E022E7FC01228380E092E0AE
S113025020E1FC01218380E092E020E3FC01228381
S113026080E092E027E0FC01248380E092E02AE031
S1130270FC0121A380E092E021E0FC01238380E0E3
S113028092E021E0FC0122A380EA90E021E0FC015D
S11302902283789480E092E021E0FC012083000036
S11302A0DF91CF910895CF93DF93CDB7DEB780E48C
S11302B098E020E23EE4FC0126A337A380E498E022
S11302C021E0FC01208380E891E028ECFC012083FC
S11302D00000DF91CF910895CF93DF93CDB7DEB7C0
S11302E00E9418010E9453010E94DD0180E092E007
S11302F023E8FC0120A38091002090910120892B08
S1130300D1F380910220909103200E940D028091EC
S1130310022090910320892F99270E940D021092A8
S1130320002010920120E7CF1F920F9200903F000F
S11303300F921124009038000F9210923800009010
S11303403A000F9210923A0000903B000F921092E4
S11303503B002F938F939F93EF93FF93CF93DF9360
S1130360CDB7DEB784E292E0FC0180819181809375
S113037002209093032080E092E021E0FC0123A37B
S113038081E090E080930020909301200000DF91B1
S1130390CF91FF91EF919F918F912F910F900092A8
S11303A03B000F9000923A000F90009238000F909B
S11303B000923F000F901F901895CF93DF93CDB715
S11303C0DEB780E696E028E0FC01258380E696E02F
S11303D028E0FC01218380E696E024E0FC012283EE
S11303E080EA99E02BE0FC01268380EA99E020E989
S11303F0FC01278380EA99E023E0FC01258380EA5D
S113040099E028E1FC01248380EA99E020E1FC01E1
S113041023830000DF91CF910895CF93DF931F9240
S1130420CDB7DEB78983000080EA99E0FC018181C1
S1130430882F90E080729927892BB1F380EA99E0A4
S11304402981FC01208300000F90DF91CF91089552
S1070450F894FFCF4A
S9030000FC
